:020000040800F2
:10000000000003205D060008F1200008F32000082E
:10001000F5200008F7200008F92000080000000083
:10002000000000000000000000000000B1EB00082C
:10003000FB2000080000000041EC0008D1E40008AB
:10004000AD060008AD060008AD060008AD060008C4
:10005000AD060008AD060008AD060008AD060008B4
:10006000AD060008AD060008AD060008AD060008A4
:10007000AD060008AD060008AD060008AD06000894
:10008000AD060008AD060008AD060008AD06000884
:10009000AD060008AD060008AD060008AD06000874
:1000A000AD060008AD060008AD060008AD06000864
:1000B000AD060008AD060008AD060008AD06000854
:1000C000AD060008AD060008AD060008AD06000844
:1000D000AD060008AD060008AD060008AD06000834
:1000E000AD060008AD060008AD060008AD06000824
:1000F000AD060008AD060008AD060008AD06000814
:10010000AD060008AD060008AD060008AD06000803
:10011000AD060008AD060008FD200008AD06000889
:10012000AD060008AD060008AD060008AD060008E3
:10013000AD060008AD060008AD060008AD060008D3
:10014000AD060008AD060008AD060008AD060008C3
:10015000AD060008AD060008AD060008AD060008B3
:10016000AD060008AD060008AD060008AD060008A3
:10017000AD060008AD060008AD060008000000004E
:10018000AD060008AD060008AD060008AD06000883
:10019000AD060008AD060008AD060008AD06000873
:0C01A00009210008AD0600081521000828
:1001B00010B5054C237833B9044B13B10448AFF3A1
:1001C00000800123237010BD800300200000000088
:1001D00088B5020808B5034B1BB103490348AFF3C8
:1001E000008008BD000000008403002088B50208DC
:1001F00001F0FF01102A2BDB10F0070F08D010F8D8
:10020000013B013A8B422DD010F0070F42B3F6D1DB
:10021000F0B441EA012141EA014122F007047FF0F4
:1002200000070023F0E80256083C85EA010586EA4B
:10023000010685FA47F5A3FA87F586FA47F6A5FA87
:1002400087F68EB9EED1F0BC01F0FF0102F0070293
:1002500032B110F8013B013A83EA010313B1F8D13E
:100260000020704701387047002D06BF354603381F
:10027000073815F0010F07D1013015F4807F02BF58
:10028000013015F4C03F0130F0BC0138704700BFA9
:100290007BB972B90029BEBF00204FF0004106E0D3
:1002A00008BF00281CBF6FF000414FF0FF3000F086
:1002B000D3B9ADF1080C6DE904CE002909DB002BA0
:1002C0001ADB00F04DF8DDF804E0DDE9022304B0AC
:1002D0007047404261EB4101002B1BDB00F040F80E
:1002E000DDF804E0DDE9022304B0404261EB4101A6
:1002F000524263EB43037047524263EB430300F007
:100300002FF8DDF804E0DDE9022304B0404261EBA0
:1003100041017047524263EB430300F021F8DDF8DE
:1003200004E0DDE9022304B0524263EB430370476B
:1003300053B94AB9002908BF00281CBF4FF0FF314C
:100340004FF0FF3000F088B9ADF1080C6DE904CE34
:1003500000F006F8DDF804E0DDE9022304B07047A0
:100360002DE9F047089D8E4604468846002B4AD169
:100370008A42174662D9B2FA82F64EB1C6F120031C
:1003800001FA06F820FA03F3B74043EA0808B4403C
:100390004FEA174E1FFA87FCB8FBFEF1230C0EFB49
:1003A000118843EA084301FB0CF29A4209D9FB1871
:1003B00001F1FF3080F0EA809A4240F2E780023992
:1003C0003B449A1AA3B2B2FBFEF00EFB102243EAA2
:1003D000024300FB0CFC9C4509D9FB1800F1FF32DD
:1003E00080F0D6809C4540F2D3803B44023840EAFE
:1003F0000140A3EB0C0300211DB1F3400022C5E92D
:100400000032BDE8F0878B4205D90DB1C5E9000186
:1004100000210846F5E7B3FA83F1002946D1734578
:1004200002D3824200F20581841A6EEB030201209E
:100430009046002DE5D0C5E90048E2E7002A00F02B
:100440009080B2FA82F6002E40F0A4808A1A030C43
:100450004FEA174E80B2BCB20121B2FBFEFC0EFB8C
:100460001C2243EA024304FB0CF29A4207D9FB1810
:100470000CF1FF3802D29A4200F2E080C4469B1A87
:10048000B3FBFEF20EFB123340EA034302FB04F41B
:100490009C4207D9FB1802F1FF3002D29C4200F2C5
:1004A000CA8002461B1B42EA0C40A5E7C1F12006A8
:1004B0008B4022FA06F71F430EFA01F420FA06F3E6
:1004C0002EFA06FE4FEA1749234300FA01F81FFAF5
:1004D00087FCBEFBF9F01C0C09FB10EE44EA0E444D
:1004E00000FB0CFEA64502FA01F209D93C1900F105
:1004F000FF3A80F09C80A64540F2998002383C4447
:10050000A4EB0E041FFA83FEB4FBF9F309FB1344BA
:100510004EEA044403FB0CFCA44508D93C1903F142
:10052000FF3E80F08280A4457FD9023B3C4443EAF1
:100530000040A4EB0C04A0FB02EC64457346E146CA
:1005400062D35FD05DB1B8EB030264EB090404FA37
:1005500006F622FA01F31E43CC40C5E900640021EF
:100560004FE7B1FBF2FC010C41EA0E4180B240EAD8
:1005700001423B4638463C46B846BE462026B1FBC3
:10058000F7F1A2EB080241EA0C4166E7014618E7E1
:1005900010462CE7C6F120022EFA02F3B740B14014
:1005A00020FA02F24FEA174E0A43B3FBFEF8BCB240
:1005B0000EFB1833110C41EA034108FB04F9B0406B
:1005C00089454FEA104380B23ED9791808F1FF3CC3
:1005D00001D289451FD8A1EB0901B1FBFEF909FB46
:1005E00004F80EFB191192B242EA0142424529D2A7
:1005F000BA1809F1FF31C4D24245C2D2A9F10201B1
:100600003A44BEE7F0459DD2BEEB02036CEB070C0B
:100610000138E14696E7A7EB09094944A8F1020C25
:10062000B1FBFEF909FB04F8DBE773467FE75046B0
:1006300066E70846FDE63B44023A33E7ACF1020CBC
:100640003B441CE749469CE7A1EB0901C446B1FBCA
:10065000FEF909FB04F8C4E7704700BFDFF834D0A7
:10066000002103E00C4B5B58435004310B480C4B0A
:1006700042189A42F6D30B4A02E0002342F8043BA8
:10068000094B9A42F9D30BF0ADFC2AF00FFA00F0B7
:10069000D3FF7047000003203489040800000020C5
:1006A0007801002080030020784C0120FEE770478D
:1006B00008B500F02BFDBDE8084000F0ADBC00F02F
:1006C00027BD704710B50421044629F003F82046E1
:1006D00010BD000038B50C4B0C4C18800C4B822020
:1006E00019806368984740F6110398420AD1094D72
:1006F00023682C60822098472B688220DB6898470B
:10070000002038BD0120FCE7A60300206000002087
:10071000A4030020A80300204FF4A071F020FFF7ED
:10072000D9BF0000F7B5394D2B6804461B698220FC
:100730009847208000284ED02B680DF106025B6997
:1007400001A982209847324B1B78002B4BD0BDF873
:10075000062040F674639A423FD9ADF80630BDF8E2
:1007600006209B1A9BB20A2B42D90B22B3FBF2F351
:10077000284A1288934201D9013A93B2BDF8042065
:10078000254840F6B8318A4234D8C2F571620E323B
:10079000016892B20F25B2FBF5F2204D2D88AA42D6
:1007A00084BF05F1FF35AAB28A4215468EB22AD916
:1007B000921B91B21A4E3768BB42BAB28CBF9A1ADA
:1007C000D21A92B211440529C4BF05603360036890
:1007D00063803368A38003B0F0BDB32A9CBFB4220A
:1007E000ADF80620BBE7BDF80630A3F5B473B9E752
:1007F0000023C3E7C2F56D62083292B20E2A016887
:10080000C8D800252A46891A89B2D3E7A803002050
:10081000742E0020A4030020A0030020A6030020C3
:100820009C03002037B568460D461446FFF77AFF53
:10083000BDF8000030B1BDF802302B60BDF80430C7
:100840002360012003B030BD704770477047704788
:10085000012380F8781080F87930704770470020C5
:1008600070470000034B4164003918BF0121197023
:10087000704700BF373F0120704700207047836BEF
:100880000BB10846184770474FF6FF707047406835
:1008900003689B69184770477047704770477047F7
:1008A00010B5044600F04AFD23680349D3F89030A0
:1008B0002046BDE810401847000000D008B5036886
:1008C0000446D3F88430984723682046DB6F984766
:1008D00000F0ECF8236820465B6F9847292001F070
:1008E00027F900F0E3F8236820465B6F9847F8E7A4
:1008F00010B5044610F052FF23682046D3F8BC30F0
:10090000BDE81040184700F0FDBC00F001BD00F04C
:1009100033BD00F0D3BC00F043BD00F04BBD00F090
:10092000D7BC10F069B910B58421044628F0D2FE76
:10093000204610BD10B590F8341090F878400C4B5C
:100940008C421A7809D03AB90A4A0B4914880888A7
:1009500010800C8001221A7010BD002AFCD0054ABC
:1009600005491488088810800C800022F3E700BF36
:10097000303F01202C3F01202E3F012070B50D4655
:10098000194635B9094B0A4A0A4840F2FF2129F0B5
:10099000DDFDC0E90F52084B003A18BF01221A7062
:1009A0000368BDE87040D3F890301847B8B6020825
:1009B000F0B602083EB70208363F012008B5094BE1
:1009C0001B888B4203D8084B1B88934205D9074BE1
:1009D000074A0848A32129F0B9FD074B1980074BA6
:1009E0001A8008BD2C3F01202E3F012083B702084A
:1009F000E6B702083EB70208323F0120343F01202B
:100A0000034690F87A0018B1586803681B681847C5
:100A100070470000012108B5002208460DF0E2FDF4
:100A20000A4B186028B90A4B0A4A28210A4829F0BB
:100A30008DFD0022042101200DF073FE074B18608C
:100A400018B9074B034A2C21F0E708BDB00300207A
:100A500029B8020872B80208A1B80208AC03002045
:100A6000E4B80208024B4FF0FF3118680DF004BEE5
:100A7000B0030020014B18680DF02ABEB00300201F
:100A8000024B002118680DF0F7BD00BFB003002035
:100A9000FFF7F0BF03480449006800231A460DF031
:100AA0007BBE00BFAC0300200400002013B5084C3F
:100AB00000231A4601A920680DF09FFE20684FF020
:100AC000FF33002201A90DF098FE02B010BD00BF57
:100AD000AC03002003685B6C184701207047036873
:100AE0009B6A1847FEE740F2EF307047054B036002
:100AF000054B4FF08062C3F88820BFF34F8FBFF3E0
:100B00006F8F704788CD020800E100E010B5044601
:100B10004FF45A61FFF7EAFF204628F0DBFD20463C
:100B200010BD000082B0002301930E4B1A6B42F4FB
:100B300000021A631A6B02F400020192019A1A6908
:100B400042F400021A611A6922F400021A61064B8B
:100B5000064A1A61064A5A61064B4FF080629A6053
:100B600002B070470038024008300020C50D000870
:100B7000E50A000800E100E008B50A2809D8DFE826
:100B800000F006100E0808080810101010000220CF
:100B900008BD054B054A0648902129F0D7FC0020E6
:100BA000F6E70120F4E700BF26B9020841B90208C0
:100BB0008CB9020838B50C46887FFFF7DDFFA58A9F
:100BC000E28A164B2169586342EA05425A64628BF5
:100BD000D963521B1A642568082D0ED19A611A61D7
:100BE0005862207F0E4A42EA0062DA61E2681A62C5
:100BF0000C4A5961D9601A6038BD0022D8611A6167
:100C0000E1680A0A480902F4784200F4FC600243F1
:100C1000C1F3C4010A439A63034AECE700B00240FF
:100C200009000100012302000123030008B50B287D
:100C30000BD8DFE800F00612100A0A0A0A080808B2
:100C40000808022008BD0520FCE7054B054A0648B8
:100C50006F2129F07BFC0020F4E70120F2E700BFC0
:100C600026B90208CDB902088CB902082DE9F04175
:100C700091F81D800C464046FFF7D8FFA77F054638
:100C80003846FFF7D3FF06463846FFF775FFA18ABF
:100C9000628B444B521A1A649A61228B521A1A615F
:100CA000E28A586342EA01425A6421696268D96360
:100CB000DA602068802828D0227F0FD8202867D0CB
:100CC000402865D004281AD0364B45EA026545F421
:100CD0000035B845DD6161D0334A44E0B0F5807F2E
:100CE00004D0B0F5007FEFD1304800E0304840EA52
:100CF0000262DA61E2681A625E62596132E045EAD4
:100D0000026242F40032DA61F6E7A068021DDA629C
:100D1000227F45EA026545F40035DD615E62596176
:100D2000017841B1012921D0224B234A23484FF4B5
:100D30008D7129F00BFCDA69418822F47F42013978
:100D400022F0100242EA0122DA610121154BDA6930
:100D500042F02002DA61DA699206FCD410229A602D
:100D60000029B9D0164A1A60BDE8F081B2F1FF013E
:100D7000DA69408822F47F4200F1FF3022F010024D
:100D800042EA002242F0100218BF0121DA61DDE7D9
:100D900045EA0262034B42F40032B4E742F2013208
:100DA000E1E700BF00B0024001230100090002009A
:100DB0000A00020017BA020831BA02088CB9020808
:100DC00001230200024B1B68586803685B691847DF
:100DD000383F012070B5044625460A4B0C300026EA
:100DE00060602672667245F8203B6022294610F04A
:100DF0002BFE04F55A63EE6024359D42FBD120465C
:100E000070BD00BF88CD0208034B1A68D207FCD41E
:100E100023229A60704700BF00B002407047000074
:100E200030B50F4C2568ED07FCD423250904A560D7
:100E300041F001010225FF2B65636164E0630AD084
:100E40000849656241EA0363E361074B226260611E
:100E5000E060236030BDE561039BA363034BF8E7CB
:100E600000B002400900010001000200010003007F
:100E700030B50E4C2568ED07FCD423251204A5607F
:100E800042F001020225FF2B65636264E063E160CA
:100E900008D01B0643F00213E361054B65626061F5
:100EA000236030BD034BE3610123F9E700B002404A
:100EB00001000200020002FF30B50B4C2568ED076F
:100EC000FCD4232512041B06A56043F4003302253D
:100ED00042F0010265636264E063E160E361034B39
:100EE00065626061236030BD00B002400100020015
:100EF000012070474020704700EB81100830704798
:100F000000EB8110083070470120704741F6301027
:100F1000704741F6301303FB01000830704741F67B
:100F2000301303FB01000830704701207047102088
:100F3000704700EB01100830704700EB01100830DB
:100F40007047084601F0ECBF10B5034B0360044640
:100F50000FF0A9FB204610BD40CE020810B5044694
:100F6000FFF7F2FF2046482128F0B4FB204610BDD1
:100F700010B5034B036004460FF095FB204610BDEF
:100F80000CCE020810B50446FFF7F2FF204641F6EA
:100F9000381128F09FFB204610BD000010B5034B10
:100FA000036004460FF07FFB204610BDD8CD020839
:100FB00010B50446FFF7F2FF2046182128F08AFBFF
:100FC000204610BD10B5094B0360044600F5CB5018
:100FD0000430FFF7B9FF04F12C00FFF7C9FF04F15B
:100FE0001400FFF7DBFF204610BD00BF74CE0208DF
:100FF00008B50248FFF7E6FF08BD00BF8C120020CD
:1010000010B50446FFF7DEFF20464FF4D95128F013
:1010100061FB204610BD00002DE9F34101F0A0FA6C
:10102000054601F0A1FA002401462346284622463F
:10103000009419F09DFA274B274A1A60204606F0C3
:1010400051F8264D264B274A27489A6019F0F8F99F
:101050002B68BFF35B8FDB0736D4284628F03CFBB8
:1010600090B3224C224F234B236007F1600604F11A
:10107000140004F12C086060C4F80880E760266161
:101080000FF012FB1C4B636140460FF00DFB1B4B36
:10109000E36238460FF008FB04F5805303F6AC100A
:1010A000174AC3F8642907F0C7FB224607F1480135
:1010B000304606F0CFFD304601F032FF114829F0EE
:1010C00063FA284628F014FB0F4802B0BDE8F0414F
:1010D000FFF7E6BB9C3F0120380400208812002067
:1010E000580400203C040020080000208C1200203E
:1010F000F02B002074CE0208D8CD02080CCE0208D6
:1011000040CE0208F10F0008B40300207047000031
:101110000148FFF7D3BB00BFB403002070B5264ED3
:10112000264C274D274B23603046FFF753FE2846B9
:101130001EF024FB244816F0EBFE244B2448DC6010
:1011400000224FF48071C3E9121222491A86C3E9C2
:101150001A12214983F85820C3E91E011F49C3F818
:1011600080101F491F480B60F021C3E90422C3E926
:101170000622C3E90822C3E90A22C3E90E22C3E911
:101180001022C3E91422C3E917225A6683F870209B
:101190005A67C3E9016501801348018013484FF481
:1011A000A07101801248018012490A70012283F85F
:1011B0003420114A1A6070BDE4040020841200201B
:1011C00058040020A8B602083C040020B403002004
:1011D0000000010101000001000450001A00140089
:1011E000383F01202C3F0120323F01202E3F0120BB
:1011F000343F0120303F01209CCC02080148FFF71A
:1012000075BC00BFE4040020002070478180704757
:10121000C1807047018170474181704770477047B6
:1012200070477047704710B4C4880368121B8488E5
:101230005B6D091B12B25DF8044B09B218474FF6FB
:10124000FF7383814FF0FF3303621368C361106043
:101250007047002070478B8883800120704770475B
:1012600080F82610704790F82600704710B50022CD
:10127000B1F90840B1F90A10028042808480C1802F
:1012800010BD0022028042808280C28070470177B8
:10129000704780ED080A704780F82410704780F886
:1012A0002510704701207047983070478C30704788
:1012B000843070477047704770470000034B90229E
:1012C00083F85A2383F85823704700BF00E100E0F9
:1012D000094A0A49D3680A48C3F30A03013B9BB28F
:1012E0000B801169C1F30A01013901801364536B4A
:1012F00043F001035363704700680140AE2D0020A6
:10130000AC2D0020014BD3F8AC00704700680140C1
:10131000024B0122C3F8AC105A62704700680140CA
:1013200010B52C21044628F0D5F9204610BD10B583
:10133000BC21044628F0CEF9204610BD70B5044605
:101340000FF0AFFC23689D6E15F008FB01462046A8
:10135000A8472368054AD3F88C502046AC460023A2
:10136000BDE87040A2F51631604700BF00B004D060
:101370000FF07EBC0FF088BC0FF044BC0FF0B3BD83
:1013800090F8252012B103685B691847704790F800
:1013900025201AB190F8242002B11860704700008F
:1013A000034B4FF080629A604FF080729A607047F2
:1013B00000E100E0084B4FF08062C3F88820BFF3E3
:1013C0004F8FBFF36F8F4FF08072C3F88820BFF349
:1013D0004F8FBFF36F8F704700E100E070B50023BF
:1013E000124E8380124B0360336893F858200546F1
:1013F0000AB1D86C00B998680368DB6A984733680B
:10140000B0FA80F4D86C640930B10368DB6A98479D
:10141000002808BF44F001042CB9064B064A0748CF
:101420002C2129F093F8284670BD00BF383F0120D9
:1014300088CE02086FBA0208CDBA020806BB0208BD
:1014400070B5254E3568BFF35B8F15F0010540D1AF
:10145000304628F041F900283BD0204C204B256134
:1014600004F13400C4E90035C4E90255E584A562FD
:10147000A58517F032F804F1580011F099FF194BC7
:10148000A3652046184B40F8843BFFF7A7FF174B96
:10149000C4F884302433C4F88C304FF4C803C4E952
:1014A00028350023C4F8AC30C4F8B030C4F8B430E8
:1014B000C4F8B8300E480F4BC4F89050C4F89C5094
:1014C000C4F8A850C4F8983029F05EF8304628F0E7
:1014D0000FF9024870BD00BFB02D0020B42D0020D0
:1014E00048E30208A8CE020820CF0208FCE2020866
:1014F000B9120008DCE2020838B5184C23685BB367
:10150000174B184A1B6C11888B4216D1164B198841
:101510000BF0FCFD236893F86A200025013283F864
:101520006A2083F87C50FFF7B5FA206810F036F98E
:101530002846BDE83840FFF788B90BF0E7FD24687E
:10154000236820461B6A9847012384F87C300020DA
:10155000BDE83840FFF77AB938BD00BF383F0120F9
:1015600000680140AE2D0020AC2D002007B5064BD1
:10157000ADF806001B68054801220DF106010CF0CC
:1015800065FB03B05DF804FB0C000020B42E0020C6
:1015900008B564200DF01AF8FBE7000030B595B0EF
:1015A000102200210AA829F0D8F91422002103A84A
:1015B00029F0D3F900241E4B01941A6C42F080529A
:1015C0001A641B6C03F080530193019B194B029426
:1015D0001A6842F440421A601B6803F440430293C5
:1015E0000122029B4FF48033CDE9082302254FF4FA
:1015F00080030821CDE90E534FF4B473CDE91013E5
:1016000008A80423139312950BF0D8FD0BF09CFD52
:101610000F23CDE903354FF4A0504FF48053CDE9AB
:101620000603052103A805940BF0A4FF15B030BDF7
:10163000003802400070004080B59AB00AF0E0FC2B
:10164000FFF7ACFF142200210DA829F086F9002431
:10165000C84B00941A6BC848DFF8588342F0100258
:101660001A631A6B02F010020092009A01941A6B2E
:1016700042F020021A631A6B02F020020192019AD2
:1016800002941A6B42F080021A631A6B02F0800215
:101690000292029A03941A6B42F004021A631A6BC4
:1016A00002F004020392039A04941A6B42F00102BE
:1016B0001A631A6B02F001020492049A05941A6BE1
:1016C00042F002021A631A6B02F002020592059AB6
:1016D00006941A6B42F040021A631A6B02F0400241
:1016E0000692069A07941A6B42F008021A631B6B63
:1016F00003F00803079301220221079B0AF006FF6B
:1017000022469D4814210AF001FF22469B484FF4CF
:1017100040510AF0FBFE01263C2399480F960DA983
:10172000CDE90D340AF008FE122393480DA9CDE946
:101730000D3602270425CDE90F440AF0FDFD8E4841
:101740000F940DA9CDE90D5610970AF0F5FD8D48BF
:101750000F940DA9CDE90D640AF0EEFD89480F96AE
:101760000DA9CDE90D540AF0E7FD0DA94FF4405342
:101770008248854DCDE90D36CDE90F470AF0DCFDF5
:101780008248834B03600AF0CDFCDFF82CE2814BEA
:101790002C62C5E900E328464FF48043C5E90434D0
:1017A000C5E90244C5E906440BF0B6F81021284605
:1017B0000BF0FAFA21462846774D0BF014FB4FF454
:1017C0008273C5E900834FF400791823C5E90693B5
:1017D00028460A23C5E90244C5E90444C5E908448A
:1017E000AC62EB620CF0D6F98F2322463946624890
:1017F0008DF824308DF834400AF088FE32464FF4DC
:101800007A7309A928460CF021FA4FF47A7332460C
:101810000DA928460CF0C6FB3246394656485F4DA6
:101820000AF074FE9DF83430D32B04BF5C4B1E705D
:101830005C4B0126C5E90036102240230024C5E98F
:1018400004234FF4C073C5E906344FF40063C5E9BF
:1018500008344FF4005302274FF00409AB624FF0F5
:10186000030A07230DA92846CDE90D73CDE90F938F
:101870004FF00808C5E90249CDE911A713970CF00C
:101880006DF84FF6FF7209A92846CDE90A8608943B
:1018900009960C940CF082F830460AF0DDFB4FF606
:1018A000FF7209A92846CDE90978CDE90B640CF04F
:1018B00075F84FF6FF7209A92846CDE909A8CDE9C8
:1018C0000B940CF06BF84FF40C730893089B0C937B
:1018D0004FF6FF7209A92846CDE909980B960CF03E
:1018E0005DF840F26A5128460CF076F834220DEB90
:1018F0000200214629F031F82B4D2C4B2C61C5E913
:1019000000340923C5E905361D23C5E9073A40F22D
:101910000D1140F24313C5E9091340F2171040F2CC
:101920004713C5E90B032846C5E90244AC8685F890
:1019300036400BF0F3FAFF214FF4806CF022CDE932
:1019400012140521CDE914C14FF4A0730DA9CDE9FE
:101950000E24CDE9164228462246154D1893CDE9AE
:1019600010370D94ADF864408DF866400BF0A1FB84
:1019700024E000BF0038024000080240000C024092
:101980000010024000000240B42F00204830002028
:1019900000300240A0860100B42E0020802E0020DE
:1019A000742E0020400100A00C2F00200068014090
:1019B000702E002000500140005C0040174B2B604F
:1019C0001B6898472B68164DDB689847154B2846CF
:1019D000C5E90034C5E90274C5E90A47C5E90C4404
:1019E0000AF0B0FB314628460AF062FCFEF760FEC2
:1019F000FEF75DFE0CF07AFD0B4A0C4821460CF018
:101A0000A1FD0B4B0B4A186021460B480CF09AFDC8
:101A10000A4B18600CF07CFDFEE700BF2800002098
:101A20000830002000B0024088CF0208911500085D
:101A30007C2E002064CF0208BF060008782E00200C
:101A4000704770477FB5094B8DF817201B680293CC
:101A50000DF117020123009201930A460146044842
:101A60000BF002F807B05DF804FB00BF1000002087
:101A7000B42F00207FB500238DF81730084B1B686A
:101A800002930A4601230DF11701009101930146CB
:101A900004480BF079F89DF8170007B05DF804FBD7
:101AA00010000020B42F00201FB5084C24680092BD
:101AB000CDE901340A460123014605480BF064F8DC
:101AC000003818BF012004B010BD00BF1000002076
:101AD000B42F00200AF0C0BA10B5064C00222046F0
:101AE00004210AF013FD20460122BDE81040042124
:101AF0000AF00CBD0008024038B50B4D0446012227
:101B00000A484FF400510AF001FD00220421284642
:101B10000AF0FCFC2046FFF729FD28460122BDE81B
:101B2000384004210AF0F2BC00080240000C0240D8
:101B300038B50B4D044600220A484FF400510AF014
:101B4000E5FC0022042128460AF0E0FC2046FFF7CD
:101B50000DFD28460122BDE8384004210AF0D6BC1C
:101B600000080240000C0240F7B5144E144F054621
:101B70000C463046002204210AF0C8FC00224FF433
:101B8000005138460AF0C2FC2846FFF7EFFC0D4B27
:101B90000D481B68224601A90CF004FA38460122C0
:101BA0004FF40051019C0AF0B1FC3046012204219F
:101BB0000AF0ACFC204603B0F0BD00BF00080240B4
:101BC000000C02400C000020B42E00200AF044BAA1
:101BD0000268034B9A4201D10AF02CBA704700BF49
:101BE000001000407047000082B00E4B00220092AF
:101BF000596C41F480415964596C01F48041009161
:101C000000990192196C41F0805119641B6C03F02A
:101C100080530193019B0F216FF0010002B00AF085
:101C200041BA00BF003802400268094B9A4282B0B4
:101C30000BD100230193074B1A6B42F480521A63B5
:101C40001B6B03F480530193019B02B0704700BFEC
:101C5000003002400038024007B50F4B02689A423C
:101C600016D10022A3F5F0430192196B41F4000153
:101C700019631B6B03F40003019305215A20019B98
:101C80000AF010FA5A2003B05DF804EB0AF03CBAEF
:101C900003B05DF804FB00BF00B002402DE9F04343
:101CA000044689B01422002103A828F056FE2268B9
:101CB000244B9A4243D1244C244800250095236BA1
:101CC00043F004032363236B03F004030093009B9E
:101CD0000195236B43F001032363236B03F001039E
:101CE0000193019B4FF012094FF400734FF001086C
:101CF0000327042603A9CDE90339CDE90587079613
:101D00000AF01AFB4FF480731148079603A9CDE936
:101D10000339CDE905870AF00FFB0295236C43F4E4
:101D200000032364236C03F400030293029B236AE1
:101D300043F400032362236A23F40003236209B0FF
:101D4000BDE8F083005C004000380240000802401B
:101D500000000240F0B599B004461422002107A803
:101D600028F0FBFD30220DEB0200002128F0F5FDEC
:101D700022685E4B9A4240F0B78008230C93C02340
:101D80001093042312930CA84FF4003315930BF017
:101D9000B9FC08B1FFF726FF554B564800240094C4
:101DA0005A6C42F080625A645A6C02F0806200926F
:101DB000009A01941A6B42F020021A631A6B02F027
:101DC00020020192019A02941A6B42F001021A63F6
:101DD0001A6B02F001020292029A03941A6B42F00B
:101DE00002021A631A6B02F002020392039A04942D
:101DF0001A6B42F040021A631A6B02F0400204921E
:101E0000049A05941A6B42F004021A631A6B02F0EA
:101E100004020592059A06941A6B42F008021A63AE
:101E20001B6B03F00803069302250E26069B0B96F8
:101E30004FF4806307A9CDE90735CDE909450AF0DC
:101E40007BFA41F658032C480B9607A9CDE90735D4
:101E50000927CDE909450AF06FFA032327480B97B4
:101E600007A9CDE90735CDE909450AF065FA4FF430
:101E7000706322480B9607A9CDE90735CDE90945DE
:101E80000AF05AFA4FF40C631D480B9607A9CDE9E6
:101E90000735CDE909450AF04FFAC02319480B96DA
:101EA00007A9CDE90735CDE909450AF045FA082328
:101EB00015480B9607A9CDE90735CDE909450AF084
:101EC0003BFA4FF4A0530E480B9707A9CDE907350D
:101ED000CDE909450AF030FA5820224605210AF0DA
:101EE000E1F858200AF010F919B0F0BD006801407F
:101EF000003802400014024000000240000402408A
:101F00000018024000080240000C024010B50446D0
:101F100088B01422002103A828F01FFD2268144B6A
:101F20009A4223D103F56843002101915A6C11486C
:101F300042F480125A645A6C02F480120192019A9F
:101F400002911A6B42F020021A631B6B03F020030C
:101F50000293029B4FF4607202230321CDE9032315
:101F60000523CDE9061303A90AF0E6F908B010BD70
:101F700000500140001402402DE9F04186B00023DA
:101F800003932B4B1C68002C4FD14FF00108C3F872
:101F90000080284B00949A6B274842EA08029A6313
:101FA0009B6B03EA08030093022703260C25009B82
:101FB00001A94FF63F03CDE90137CDE904650AF0E9
:101FC000BBF91E48059501A9CDE90187CDE9034676
:101FD0000AF0B2F948F233131948059501A9CDE981
:101FE0000137CDE903460AF0A7F94FF68373154888
:101FF000059501A9CDE90137CDE903460AF09CF921
:102000004CF203731048059501A9CDE90137CDE9DC
:1020100003460AF091F960230C48059501A9CDE922
:102020000137CDE903460AF087F906B0BDE8F08133
:1020300050300020003802400014024000080240E6
:102040000018024000100240000C02400004024050
:1020500070B588B000230293204B1A6C42F0100236
:102060001A641B6C03F010030293054601A903A830
:10207000029B0BF029FB069B4BBB0BF015FB184E8C
:10208000184B336040F2E733F360174BB0FBF3F3C8
:10209000013B7360304600233361B360B3610CF0E1
:1020A00051F9044680B930460CF022F8044658B97C
:1020B00036200AF029F80F2D0DD822462946362061
:1020C00009F0F0FF094B1D60204608B070BD0BF011
:1020D000EBFA4000D3E70124F6E700BF00380240E6
:1020E000543000200010004040420F0090000020BB
:1020F0007047FEE7FEE7FEE7FEE7704701480CF099
:1021000035B800BF5430002001480AF075BF00BF49
:102110000C2F002001480AF041B800BF0830002011
:102120000120704708B528F0BBFC162303604FF070
:10213000FF3008BD08B528F0B3FC16230360FEE7A6
:1021400070B50D4614460E46731B9C4201DC2046BA
:1021500070BDAFF3008006F8010BF5E770B50D46D2
:1021600014460E46731B9C4201DC204670BD16F8D7
:10217000010BAFF30080F5E74FF0FF3070474FF4ED
:1021800000534B60002070470120704700207047CB
:102190000A4A116808B5034609B90949116010686F
:1021A000694603448B4206D928F07AFC0C2303606D
:1021B0004FF0FF3008BD1360FCE700BF9C300020EB
:1021C000784C0120704708B508291AD8DFE801F0DB
:1021D0001105090D11151515150005F0DDFB4068F9
:1021E00008BD05F0D9FB8068FAE705F0D5FBC068AB
:1021F000F6E705F0D1FB0068F2E705F0CDFB0069DA
:10220000EEE70020ECE710B50421044627F062FA5F
:10221000204610BD806A7047704730B5036885B0AE
:102220006D460181D3F8843001460446284698471C
:1022300095E807003C3484E8070005B030BD30B5B0
:10224000036885B06D464181D3F884300146044669
:102250002846984795E807003C3484E8070005B015
:1022600030BD0022028042808280C280704780F8A8
:102270003610704770B5036804461B6B15469847C7
:102280002368294620465B6EBDE870401847002051
:102290007047806C704770477047704710B50821D1
:1022A000044627F017FA204610BD10B54C2104460D
:1022B00027F010FA204610BD10B54FF48071044687
:1022C00027F008FA204610BD08B5FFF759F808BDF9
:1022D000036870B55E6B124B1B6804468DB22BB958
:1022E000104B114A6C21114828F030F91049828DA9
:1022F0000988914203D80F4B0B4A6D21F3E713F87D
:1023000012200D4B1B6853F8220003681B6B984783
:10231000291A3346204609B2BDE87040184700BF6D
:10232000903F01207DBB0208BFBB0208FABB020838
:10233000943F012041BC0208983F012000224FF049
:10234000FF31C0E90021826070470000074A026047
:102350000022C0E90122C0E90322C0E90522C0E948
:1023600007224FF480728284704700BFB4E60208EF
:1023700070B5036804461B6B1546984723682946C9
:1023800020465B6BBDE870401847000010B5262260
:102390000446002128F0E1FA2046FFF7D7FF0A4B58
:1023A00023600A4BA3624FF6FF73A3854FF47F02AD
:1023B0000023C4E90C3223874FF0FF32C4E9102315
:1023C000E363204610BD00BF7CE40208C8CF0208CA
:1023D0002DE9F047044686B026460025FFF7B6FFF4
:1023E000524BA56246F82C3B29462622304628F05F
:1023F000B4FA3046FFF7AAFF4D4BE36204F15808E8
:10240000FF2384F8523004F1A00765654046FFF7CA
:10241000BDFF3846FFF7BAFF464BC4F8A030464B25
:10242000A3602A4629463046C4F8E850FFF7A0FFCB
:1024300030462D21FEF7EEFE30461E21FEF7ECFE63
:102440004FF0FF336365314620460EF03FF96E468C
:102450002A46092140464FF07F4AFFF789FFA4F83A
:102460008C5041463046C4F888A011F049F996E8EE
:10247000070004F1940383E80700DFF8E090CDF84B
:1024800010901E2304A94046ADF8143011F0D2FB81
:10249000414620460EF01AF90F2209213846FFF76F
:1024A00067FFD4F8A030A4F8D450D3F88430C4F82F
:1024B000D0A039463046984796E8070004F1DC037F
:1024C00083E807001D4B1B6804F1EC052BB91C4B7E
:1024D0001C4A60211C4828F039F81C4B1B881C2B17
:1024E00003D81B4B174A6121F4E71A4B1C211868CB
:1024F00004F034FE184A03460A21284617F093FFD9
:102500003846C4F8E85011F075FB1D2304A938467D
:10251000ADF81430CDF8109011F08CFB2046394600
:102520000EF0D4F8204606B0BDE8F08768D0020867
:102530000CE50208D8CF02082D001E00903F0120B4
:102540007DBB02087FBC0208FABB0208943F012051
:1025500041BC02089C3F0120CABC0208C8CF020847
:1025600000487047F4D002080220704713B50024D9
:1025700051B1036801948DF8034001AA9C680DF1E4
:102580000303A04702B010BD0846FBE7C0897047AF
:10259000008A7047C088704780887047807A00F052
:1025A0007F007047807AC0097047002070470000A4
:1025B0009FED010A704700BF0000000070477047A0
:1025C000704770477047704770477047704790F882
:1025D0002C304BB100F16C021268C2653BB100F1C6
:1025E00074031B680366704700F16802F4E700F1AA
:1025F0007003F6E730B4C26844685510034604EB34
:102600006200D20748BF62599B6830BC48BFD358AC
:1026100018470346406830B19A681AB9D86800F084
:10262000010070470120704790F82D3080F85A3033
:10263000704710B57821044627F04CF8204610BDAD
:1026400010B51021044627F045F8204610BD10B5FE
:102650004FF44C71044627F03DF8204610BD10B5EC
:102660000446006B50B10368DB68984730B1206BBB
:10267000036821469B68BDE81040184710BD0B79E0
:1026800070B590F82C6004460D460BB916B170BDBC
:10269000002EFCD0B3FA83F35B0984F82C30236856
:1026A0002046D3F88C309847236820465B699847CA
:1026B000002EECD02B79012BE9D123682046D3F8EA
:1026C0008830BDE87040184738B500F1E003994202
:1026D00004460D4603D114F041F900F0C1FC04F5A5
:1026E000AC739D4203D114F039F900F069FC04F594
:1026F000E874A54205D114F031F9BDE8384000F086
:102700008FBC38BD70B504461D46BDF91060FFF79B
:102710002FFE2368294620469B6B98472368314645
:102720002046DB6BBDE870401847000010B526223C
:102730000446002128F011F92046FFF707FE044B5C
:102740002360FF2384F826300023A362204610BDB7
:102750000CE5020870B50446FFF7F8FD4FF47F431F
:102760002646A3850123002584F824300D4BA5625D
:10277000256346F8343B3046FFF7D8FF0A4B6363C6
:102780002A4629463046C4E91A55C4E91C5525662F
:10279000A4F86450FFF7ECFD204631460DF096FF9B
:1027A000204670BD24D1020874E502082DE9F04FDF
:1027B00004468FB0A046002516F046F9AC4BE56301
:1027C00048F8403B04F16C0A4046FFF7AFFF04F1C4
:1027D00098075046FFF7AAFF3846FFF7D7FD04F1E8
:1027E000E00318460493FFF7B5FF04F5AC731846F1
:1027F0000593FFF7AFFF04F5E87318460693FFF75C
:10280000A9FF04F5127318460293FFF7BFFD04F504
:10281000247304F5367918460393FFF7B7FD48464D
:10282000FFF7B4FD934BC4E9C834934B4FF4A07B3E
:10283000C4E9CA352A46CDF800B029464046F023FF
:10284000261DFFF75FFF4FF07F43A36641463046EA
:102850000DF03CFF2A46CDF800B029465046F02343
:10286000FFF750FF854BC4F89430514630460DF0C9
:102870002DFF1C2238463621FFF77AFD0DF1200886
:102880004FF07F43C4F8C83039464046A4F8CC50D6
:1028900010F036FF98E8070004F1D40383E807003E
:1028A000DFF8ECB1CDF830B029230CA93846ADF8EB
:1028B000343011F0BFF93946304632270DF006FFAB
:1028C0002A46294604F58A7000978423FFF71AFFE9
:1028D0006B4B6C4A6C496D484FF0050AC4E95232A3
:1028E000C4E95410A4F844A10498FFF770FE04F55D
:1028F000487CC4F810C104980097842352223621E2
:10290000CDF81CC0FFF7FEFE049930460DF0DEFE48
:102910002A46294604F5C67000978423FFF7F2FE85
:10292000574B584A58495948A4F8BCA1C4E97032D9
:10293000C4E972100598FFF74AFE079BC4F8883176
:1029400005980097842394223621FFF7DBFE059932
:1029500030460DF0BBFE2A46294604F5017000976B
:102960008423FFF7CFFE464B464A47494748A4F821
:1029700034A2C4E98E32C4E990100698FFF727FE0E
:10298000079BC4F80032069800978423DA22362188
:10299000FFF7B8FE069930460DF098FE02986422C3
:1029A0005A21FFF7E5FC4FF07F430299C4F87832D3
:1029B0004046A4F87C5210F0A3FE98E8070004F506
:1029C000217383E8070028230298ADF834300CA95E
:1029D000CDF830B011F02EF9029930460DF076FEA8
:1029E0000398A6223E21FFF7C3FC4FF07F430399D3
:1029F000C4F8C0324046A4F8C45210F081FE98E8F2
:102A0000070004F5337383E8070027230398ADF824
:102A100034300CA9CDF830B011F00CF903993046E0
:102A20000DF054FEEC2248465E21FFF7A1FC4FF06A
:102A30007F43C4F8083349464046A4F80C5310F0CD
:102A40005FFE98E8070004F5457383E80700262336
:102A50000CA94846ADF83430CDF830B011F0EAF8A2
:102A6000304649460DF032FE20460FB0BDE8F08FEB
:102A7000D8D10208C0D10208C9260008585873FFEF
:102A8000996600FFCC9900FF663300FF996633FF1B
:102A9000C8CF02087047704700F598730868496806
:102AA00003C3704770477047416070477047704775
:102AB000064BC0F84C310023C0F8503100F5A2732A
:102AC000C0F84801C0F84031704700BF85330008A6
:102AD0000123037270477047704770477047704713
:102AE00070477047704738B5054640680368DB6932
:102AF0009847044604B938BDA188AB89C91A236830
:102B000020461B6B09B29847A469F3E7704710B4DD
:102B1000C26841685410034601EB6200D20748BF07
:102B20000A599B685DF8044B48BFD35818470346C1
:102B3000406830B19A681AB9D86800F0010070474F
:102B40000120704710B51421044626F0C3FD20462D
:102B500010BD10B50C21044626F0BCFD204610BD6A
:102B600010B51021044626F0B5FD204610BD10B565
:102B70001421044626F0AEFD204610BD10B51021EC
:102B8000044626F0A7FD204610BD10B54FF4AE71E7
:102B9000044626F09FFD204610BD10B54021044696
:102BA00026F098FD204610BD10B513F0D7FE03683F
:102BB000BDE81040DB6B184710B513F0CFFE03687B
:102BC000BDE810405B6B184710B513F0C7FE0368F3
:102BD000BDE810405B6B184770B50446B2B01E49A3
:102BE000C02202A827F089FF237C2F2B03D90123C1
:102BF000237232B070BD33B9184B1B781BB113F080
:102C0000ADFE13F0B1FE0225237C302BF1D832AAA1
:102C100002EB8303E68953F8C03C608993FBF6F22C
:102C200006FB123313FB00F3ADF804006068A189C2
:102C3000ADF800300368ADF8061012FB01F21B6915
:102C4000ADF8022069469847237C012D03F101036A
:102C50002374CED00125D7E7A0B50208363F012066
:102C600013B50446807A637A0130C0B29842A072EC
:102C700005D9012323720023A37202B010BDB4F959
:102C80000C20002116F092F8C30707D500284FF654
:102C9000FF73C8BF012313FA80F000B2144AE08129
:102CA00012880023ADF8023083B2D21AADF80020AA
:102CB000228A20829B1AADF804300E4B1B88ADF897
:102CC000063013F04BFE036802AA1B6C12E90600E3
:102CD0009847A37A012BD0D1074B1B78002BCCD07F
:102CE00013F03CFE02B0BDE8104013F03DBE00BF43
:102CF0002C3F01202E3F0120363F012037B50546ED
:102D0000807A6B7A0130C0B29842A87205D901234B
:102D10002B720023AB7203B030BDB5F90C20B5F9AE
:102D20000E40002116F042F8C30707D500284FF6E1
:102D3000FF73C8BF012313FA80F000B2AB7AE881B9
:102D4000041B012BA4B206D1174B1B781BB113F047
:102D500005FE13F009FE154A00231288ADF8023073
:102D6000EB891A445B42ADF80430114BADF80020FA
:102D70001B88ADF8063013F0F1FD036802AA12E9D2
:102D800006001B6C984768680368DB69984705462E
:102D9000002DC0D0A9882B68214428461B6B09B29E
:102DA0009847AD69F4E700BF363F01202C3F012072
:102DB0002E3F0120054B1B7801462BB1406818B10E
:102DC00003680C315B6E1847704700BF373F012026
:102DD000037A70B50546BBB940680368DB6998475C
:102DE00004463CB96868036805F10C011B6EBDE838
:102DF00070401847A1886B8FC91A236820461B6B47
:102E000009B29847A469ECE770BD10B50446D0F844
:102E1000400158B10368DB68984738B1D4F84001E5
:102E200003689B6898470023C4F8403110BD70B513
:102E3000044690F8390094F838300130C0B2984216
:102E400084F8390005D901232372002384F839302E
:102E500070BDB4F93A20002115F0A8FFC30706D5CC
:102E600000284FF6FF73C8BF0123184400B2238A1D
:102E7000C01AA08760680368DB69984705462DB9CA
:102E800060680368BDE870405B691847A988A38F34
:102E900019442B6828461B6B09B29847AD69EEE7C9
:102EA000044B1B6893F858200AB1D86C00B9986895
:102EB000704700BF383F0120F8B5174604460E465C
:102EC00013F080FE124B1C60124B2360124B002546
:102ED000C4E95135114BC4E9535518680368012101
:102EE0009B68C4E94F55C4E955769847284604F0D5
:102EF000F9F8FFF7D5FF1EF0EAFAFFF7D1FF1EF051
:102F000061FBFFF7CDFF1EF069FB2046F8BD00BF57
:102F10008C3F012024D202080CD20208383F012045
:102F2000064BC0F84C310023C0F8503100F5A273B5
:102F3000C0F84801C0F84031704700BF8533000831
:102F4000064BC0F84C310023C0F8503100F5A27395
:102F5000C0F84801C0F84031704700BFE1390008AF
:102F6000064BC0F84C310023C0F8503100F5A27375
:102F7000C0F84801C0F84031704700BF2532000852
:102F8000064BC0F84C310023C0F8503100F5A27355
:102F9000C0F84801C0F84031704700BFAD300008AC
:102FA000064BC0F84C310023C0F8503100F5A27335
:102FB000C0F84801C0F84031704700BFA53800088C
:102FC000064BC0F84C310023C0F8503100F5A27315
:102FD000C0F84801C0F84031704700BF393F0008D1
:102FE000064BC0F84C310023C0F8503100F5A273F5
:102FF000C0F84801C0F84031704700BF6D37000885
:10300000064BC0F84C310023C0F8503100F5A273D4
:10301000C0F84801C0F84031704700BF31360008A1
:10302000064BC0F84C310023C0F8503100F5A273B4
:10303000C0F84801C0F84031704700BF013E0008A9
:10304000064BC0F84C310023C0F8503100F5A27394
:10305000C0F84801C0F84031704700BFC93C0008C3
:10306000064BC0F84C310023C0F8503100F5A27374
:10307000C0F84801C0F84031704700BF913B0008DC
:10308000064BC0F84C310023C0F8503100F5A27354
:10309000C0F84801C0F84031704700BFF93400085B
:1030A00003685B6A184703685B6A18472DE9F047B5
:1030B000D0E955690546B06803681B6A9847B0F5C2
:1030C0004D7F05D24D4B4E4AA3214E4827F03EFA84
:1030D000706803681B6A98470F2803D84A4B484A10
:1030E000A421F2E7F06803681B6A9847132803D805
:1030F000464B434AA521E8E713F030FCDFF8208176
:10310000043013F091FCD8F8000010B10368DB68BC
:103110009847D8F8000010B103681B6898473C4FE7
:10312000386810B103685B699847D5F83C0110B165
:1031300003685B689847386810B103681B68984754
:10314000D5F83C0110B103689B689847F0680368A4
:1031500000215B6A984700234360037203742D4B80
:103160002D4A02601A882D4B1B889A4204463DD98D
:10317000073206210533D208B3FBF1F308219BB2D5
:103180006281A381E181B0680021FFF789FF824657
:1031900004F0A4FC70680021FFF785FF5146064645
:1031A00004F07AFC331DC5F83C61C8F80040C7F84C
:1031B00000A0C9F80030DAF80030C6F80890504690
:1031C000DB68CAF83C609847336830461B6898470C
:1031D0002146504615F0E4FD236820461B699847B8
:1031E000236820465B69BDE8F0471847073305327E
:1031F0000621DB08B2FBF1F292B2C1E7CDBC0208B6
:103200005BBD02083ABE020881BE020824BF020864
:103210007C3F01202C3F01209CD202082E3F012040
:10322000803F01202DE9F14FD0E9556A0746B0688B
:1032300003681B6A9847B0F54D7F05D2484B494A51
:10324000A321494827F082F9706803681B6A9847F0
:103250000F2803D8454B434AA421F2E7F0680368DE
:103260001B6A9847132803D8414B3E4AA521E8E73B
:1032700013F074FBDFF80491043013F0D5FBD9F898
:10328000000010B10368DB689847D9F8000010B15E
:1032900003681B689847DFF8E880D8F8000010B191
:1032A00003685B699847D7F83C0110B103685B6815
:1032B0009847D8F8000010B103681B689847D7F802
:1032C0003C0110B103689B689847F06803680021CF
:1032D0005B6A9847274B03604FF4A0530381264B4A
:1032E0004FF0000B1B8880F80AB0044683815946D2
:1032F000C0F804B0A0F80EB0A0F810B0B068FFF7A6
:10330000CFFE054604F0EAFB59467068FFF7CBFE96
:103310002946064604F0C0FB331DC7F83C61C9F8D6
:103320000040C8F80050CAF800302B68C6F808A062
:103330002846DB68EE639847336830461B68984739
:103340002146284615F02CFD236820461B69984726
:1033500023685B69204601B0BDE8F04F184700BF05
:10336000CDBC0208C7BF02083ABE020881BE0208EF
:1033700024BF0208C0D202082C3F0120803F012058
:103380007C3F01202DE9F14FD0E9556A0746B0682E
:1033900003681B6A9847B0F54D7F05D2434B444AFA
:1033A000A321444827F0D2F8706803681B6A984745
:1033B0000F2803D8404B3E4AA421F2E7F068036887
:1033C0001B6A98470B2803D83C4B394AA521E8E7EC
:1033D00013F0C4FADFF8EC90043013F025FBD9F8B1
:1033E000000010B10368DB689847D9F8000010B1FD
:1033F00003681B689847DFF8D080D8F8000010B148
:1034000003685B699847D7F83C0110B103685B68B3
:103410009847D8F8000010B103681B689847D7F8A0
:103420003C0110B103689B689847F068036800216D
:103430005B6A98474FF0000B214B036004465946E6
:10344000C0F804B080F808B0B068FFF729FE054660
:1034500004F044FB59467068FFF725FE29460646EE
:1034600004F01AFB331DC7F83C61C9F80040C8F8E6
:103470000050CAF800302B68C6F808A02846DB6860
:10348000EE639847336830461B68984721462846C4
:1034900015F086FC236820461B69984723685B6902
:1034A000204601B0BDE8F04F184700BFCDBC020870
:1034B000B5C002083ABE020881BE020824BF020855
:1034C00078D20208803F01207C3F012003685B6ABC
:1034D00018470000002210B5426002728272C28159
:1034E000034A044C1288046052424172828110BD2A
:1034F0002C3F0120E4D202082DE9F047D0E9556ABB
:103500000746B06803681B6A9847B0F57D7F05D20F
:10351000404B414AA321414827F018F870680368DE
:103520001B6A98470F2803D83D4B3B4AA421F2E77A
:10353000F06803681B6A98470F2803D8394B364A4E
:10354000A521E8E713F00AFADFF8DC90043013F065
:103550006BFAD9F8000010B10368DB689847D9F816
:10356000000010B103681B689847DFF8C080D8F8E6
:10357000000010B103685B699847D7F83C0110B1AF
:1035800003685B689847D8F8000010B103681B68AF
:103590009847D7F83C0110B103689B689847F068DA
:1035A0000021FFF793FF14210446FFF793FFB06853
:1035B000036800215B6A9847054607F01BFD7068A9
:1035C000036800215B6A98472946064607F0F0FC2D
:1035D000331DC7F83C61C9F80040C8F80050CAF86C
:1035E00000302B68C6F808A02846DB68EE639847D1
:1035F000336830461B6898472146284615F0D0FBB3
:10360000236820461B699847236820465B69BDE80C
:10361000F0471847CDBC020891C102083ABE020823
:1036200081BE020824BF0208803F01207C3F0120A8
:103630002DE9F047D0E9556A0746B06803681B6A70
:10364000984741F24F23984205D8414B414AA32164
:10365000414826F07BFF706803681B6A98470F2873
:1036600003D83E4B3B4AA421F2E7F06803681B6A8B
:1036700098470F2803D83A4B364AA521E8E713F0BC
:103680006DF9DFF8E090043013F0CEF9D9F80000BE
:1036900010B10368DB689847D9F8000010B10368DF
:1036A0001B689847DFF8C080D8F8000010B10368A5
:1036B0005B699847D7F83C0110B103685B6898478D
:1036C000D8F8000010B103681B689847D7F83C0190
:1036D00010B103689B689847F0680021FFF7F6FE79
:1036E00014210446FFF7F6FEB068036800215B6A08
:1036F0009847054604F0ACFB7068036800215B6ADC
:1037000098472946064604F073FB331DC7F83C6111
:10371000C9F80040C8F80050CAF800302B68C6F855
:1037200008A02846DB68EE639847336830461B687C
:1037300098472146284615F033FB236820461B692D
:103740009847236820465B69BDE8F047184700BFEB
:10375000CDBC02088CC202083ABE020881BE020833
:1037600024BF0208803F01207C3F01202DE9F04763
:10377000D0E9556A0746B06803681B6A9847B0F5F8
:10378000416F05D2404B414AA321414826F0DEFE5D
:10379000706803681B6A98470F2803D83D4B3B4A63
:1037A000A421F2E7F06803681B6A98470F2803D842
:1037B000394B364AA521E8E713F0D0F8DFF8DC9062
:1037C000043013F031F9D9F8000010B10368DB6858
:1037D0009847D9F8000010B103681B689847DFF8D4
:1037E000C080D8F8000010B103685B699847D7F82B
:1037F0003C0110B103685B689847D8F8000010B12D
:1038000003681B689847D7F83C0110B103689B68B0
:103810009847F0680021FFF759FE14210446FFF78E
:1038200059FEB068036800215B6A9847054605F0B9
:103830001BF97068036800215B6A984729460646B1
:1038400005F0E2F8331DC7F83C61C9F80040C8F83C
:103850000050CAF800302B68C6F808A02846DB687C
:10386000EE639847336830461B68984721462846E0
:1038700015F096FA236820461B699847236820466E
:103880005B69BDE8F0471847CDBC020877C3020862
:103890003ABE020881BE020824BF0208803F012010
:1038A0007C3F01202DE9F047D0E9556A0746B06812
:1038B00003681B6A984741F62F13984205D8414B7D
:1038C000414AA321414826F041FE706803681B6A03
:1038D00098470F2803D83E4B3B4AA421F2E7F068F3
:1038E00003681B6A98470F2803D83A4B364AA5212C
:1038F000E8E713F033F8DFF8E090043013F094F8C1
:10390000D9F8000010B10368DB689847D9F80000C7
:1039100010B103681B689847DFF8C080D8F8000032
:1039200010B103685B699847D7F83C0110B1036890
:103930005B689847D8F8000010B103681B68984787
:10394000D7F83C0110B103689B689847F0680021E4
:10395000FFF7BCFD14210446FFF7BCFDB068036807
:1039600000215B6A9847054605F038FD70680368DA
:1039700000215B6A98472946064605F0FFFC331D87
:10398000C7F83C61C9F80040C8F80050CAF80030D8
:103990002B68C6F808A02846DB68EE6398473368B2
:1039A00030461B6898472146284615F0F9F92368E8
:1039B00020461B699847236820465B69BDE8F047AD
:1039C000184700BFCDBC020860C402083ABE020816
:1039D00081BE020824BF0208803F01207C3F0120F5
:1039E0002DE9F047D0E9556A0746B06803681B6ABD
:1039F0009847B0F54D7F05D23F4B404AA321404840
:103A000026F0A4FD706803681B6A98470F2803D846
:103A10003C4B3A4AA421F2E7F06803681B6A9847D6
:103A20000F2803D8384B354AA521E8E712F096FF56
:103A3000DFF8D890043012F0F7FFD9F8000010B189
:103A40000368DB689847D9F8000010B103681B6869
:103A50009847DFF8BC80D8F8000010B103685B69B4
:103A60009847D7F83C0110B103685B689847D8F8CD
:103A7000000010B103681B689847D7F83C0110B1EB
:103A800003689B689847F0680021FFF71FFD142129
:103A90000446FFF71FFD0021B068FFF701FB054654
:103AA00004F01CF870680021FFF7FDFA294606466D
:103AB00003F0F2FF331DC7F83C61C9F80040C8F8B5
:103AC0000050CAF800302B68C6F808A02846DB680A
:103AD000EE639847336830461B689847214628466E
:103AE00015F05EF9236820461B6998472368204635
:103AF0005B69BDE8F0471847CDBC020849C502081C
:103B00003ABE020881BE020824BF0208803F01209D
:103B10007C3F012003685B6A184700002DE9F041F3
:103B200005460026164B4660067245F80C3B0446D7
:103B300028460F460FF0E4FC124B84F838701B78CF
:103B400084F83960A68723B9012323722046BDE893
:103B5000F0810D4B0D4FB3F90080E368B7F9001009
:103B60009B6B266128469847E3684146DB6B2846F5
:103B7000984728460FF03FFC3B885B426387E5E7A8
:103B800008D30208373F01202E3F01202C3F01209F
:103B90002DE9F047D0E9556A0746B06803681B6A0B
:103BA0009847B0F57D7F05D2404B414AA32141485B
:103BB00026F0CCFC706803681B6A98470F2803D86E
:103BC0003D4B3B4AA421F2E7F06803681B6A984723
:103BD0003F2803D8394B364AA521E8E712F0BEFE4C
:103BE000DFF8DC90043012F01FFFD9F8000010B1AC
:103BF0000368DB689847D9F8000010B103681B68B8
:103C00009847DFF8C080D8F8000010B103685B69FE
:103C10009847D7F83C0110B103685B689847D8F81B
:103C2000000010B103681B689847D7F83C0110B139
:103C300003689B689847F0680021FFF76BFF142129
:103C40000446FFF76BFFB068036800215B6A984782
:103C5000054607F0CFF97068036800215B6A984752
:103C60002946064607F0A4F9331DC7F83C61C9F898
:103C70000040C8F80050CAF800302B68C6F808A009
:103C80002846DB68EE639847336830461B689847E0
:103C90002146284615F084F8236820461B6998477A
:103CA000236820465B69BDE8F0471847CDBC020891
:103CB00038C602083ABE020881BE020824BF0208C4
:103CC000803F01207C3F01202DE9F047D0E9556A73
:103CD0000746B06803681B6A9847B0F54C7F05D269
:103CE000404B414AA321414826F030FC70680368EC
:103CF0001B6A98470F2803D83D4B3B4AA421F2E7A3
:103D0000F06803681B6A98473F2803D8394B364A46
:103D1000A521E8E712F022FEDFF8DC90043012F073
:103D200083FED9F8000010B10368DB689847D9F822
:103D3000000010B103681B689847DFF8C080D8F80E
:103D4000000010B103685B699847D7F83C0110B1D7
:103D500003685B689847D8F8000010B103681B68D7
:103D60009847D7F83C0110B103689B689847F06802
:103D70000021FFF7CFFE14210446FFF7CFFEB06805
:103D8000036800215B6A9847054603F0C7FF706827
:103D9000036800215B6A98472946064603F09CFFAA
:103DA000331DC7F83C61C9F80040C8F80050CAF894
:103DB00000302B68C6F808A02846DB68EE639847F9
:103DC000336830461B6898472146284614F0E8FFC0
:103DD000236820461B699847236820465B69BDE835
:103DE000F0471847CDBC020833C702083ABE0208A4
:103DF00081BE020824BF0208803F01207C3F0120D1
:103E00002DE9F047D0E9556A0746B06803681B6A98
:103E10009847B0F58A5F05D2404B414AA3214148FB
:103E200026F094FB706803681B6A98470F2803D834
:103E30003D4B3B4AA421F2E7F06803681B6A9847B0
:103E40003F2803D8394B364AA521E8E712F086FD12
:103E5000DFF8DC90043012F0E7FDD9F8000010B173
:103E60000368DB689847D9F8000010B103681B6845
:103E70009847DFF8C080D8F8000010B103685B698C
:103E80009847D7F83C0110B103685B689847D8F8A9
:103E9000000010B103681B689847D7F83C0110B1C7
:103EA00003689B689847F0680021FFF733FE1421F0
:103EB0000446FFF733FEB068036800215B6A984749
:103EC000054605F0B3FF7068036800215B6A9847F8
:103ED0002946064605F07AFF331DC7F83C61C9F84C
:103EE0000040C8F80050CAF800302B68C6F808A097
:103EF0002846DB68EE639847336830461B6898476E
:103F00002146284614F04CFF236820461B69984739
:103F1000236820465B69BDE8F0471847CDBC02081E
:103F200026C802083ABE020881BE020824BF020861
:103F3000803F01207C3F01202DE9F047D0E9556A00
:103F40000746B06803681B6A984741F66F039842BA
:103F500005D8414B414AA321414826F0F7FA706841
:103F600003681B6A98470F2803D83E4B3B4AA4219D
:103F7000F2E7F06803681B6A98473F2803D83A4B7A
:103F8000364AA521E8E712F0E9FCDFF8E0900430BA
:103F900012F04AFDD9F8000010B10368DB689847B9
:103FA000D9F8000010B103681B689847DFF8C0809B
:103FB000D8F8000010B103685B699847D7F83C0156
:103FC00010B103685B689847D8F8000010B1036827
:103FD0001B689847D7F83C0110B103689B68984765
:103FE000F0680021FFF796FD14210446FFF796FDC7
:103FF000B068036800215B6A9847054606F01AFC22
:104000007068036800215B6A98472946064606F0F7
:10401000E1FB331DC7F83C61C9F80040C8F8005007
:10402000CAF800302B68C6F808A02846DB68EE63A3
:104030009847336830461B6898472146284614F055
:10404000AFFE236820461B699847236820465B69BA
:10405000BDE8F047184700BFCDBC02082BC90208D5
:104060003ABE020881BE020824BF0208803F012038
:104070007C3F012070477047704730B4C268446885
:104080005510034604EB6200D20748BF62599B6893
:1040900030BC48BFD35818470346406830B19A68CF
:1040A0001AB9D86800F0010070470120704710B5B8
:1040B0001021044625F00EFB204610BD10B54FF42C
:1040C0004C71044625F006FB204610BD00F50E702D
:1040D000884208B505D112F041FCBDE80840FEF762
:1040E0004FBF08BD2DE9F04F04468DB0A046002516
:1040F00014F0AAFC834BE56348F8403B04F16C0ADA
:10410000404604F19807FEF711FB5046FEF70EFB00
:1041100004F1E0093846FEF739F904F5AC76484673
:10412000FEF718FB3046FEF731F904F5D073184658
:10413000DFF8FCB10293FEF729F904F5F673C4F831
:10414000A0B11846C4F8E8510393FEF71FF904F52F
:104150000E73C4F8ECB11846C4F834520593FEF758
:10416000F9FA04F52C7318460493FEF70FF9664B21
:10417000C4E9C834654BC4E9CA354FF4A0732A4674
:10418000404600932946F023FEF7BCFA04F1040BE5
:104190004FF07F434146A36658460CF097FA4FF420
:1041A000A0732A46504600932946F023FEF7AAFA48
:1041B000574BC4F89430514658460CF087FA2E22DB
:1041C00038462621FEF7D4F80DF118084FF07F434A
:1041D0003946C4F8C8304046A4F8CC500FF090FAE5
:1041E00098E8070004F1D40383E80700494B0A93D9
:1041F0004FF00A0238460AA9ADF82C200FF01AFD3C
:104200003946584635270CF061FA6E2329462A466E
:1042100004F58A700097FEF775FA4FF00502A4F8CE
:1042200044213D4AC4F8482102F54C523332C4F8C7
:104230004C21A2F5CC42663AC4F8502102F1331267
:1042400002F54C524846C4F85421FEF7C0F96E23DB
:104250006222484641210097FEF754FA49465846E3
:104260000CF034FA6F2254213046FEF781F84FF0FB
:104270007F42C4F8882131464046A4F88C510FF0A3
:104280003FFA98E8070004F5CA7383E80700214B5A
:104290000A930AA909233046ADF82C300FF0CAFC66
:1042A000314658460CF012FA81220298DFF88490C9
:1042B0005421FEF75DF84FF07F43C4F8D031D4F8B5
:1042C000A0310299D3F88430A4F8D45140469847DD
:1042D00098E8070004F5EE7383E80700D9F800308A
:1042E00004F53E7A2BB90D4B0D4A60210D4826F09E
:1042F0002DF90D4F3B881F2B1ED80C4B084A61210E
:10430000F4E700BF44D302082CD30208CD400008D4
:104310003E54B0FFC8CF0208996600FF7DBB02087B
:104320007FBC0208FABB0208943F012041BC02088E
:10433000D8CF0208903F0120584E1F21306802F06C
:104340000DFF574A03460A21504616F06CF80298B2
:10435000C4F8E8A10FF04EFC524B02980A930AA948
:104360000823ADF82C300FF065FC029958460CF08C
:10437000ADF9039881228321FDF7FAFFD4F8EC31DF
:104380000399D3F88430A4F820524FF07F42C4F848
:104390001C224046984798E8070004F50A7383E812
:1043A0000700D9F8003004F5437A002B9BD03B88F6
:1043B0001C2BA2D930683B4F1C2102F0CFFE384A9B
:1043C00003460A21504616F02EF80398C4F834A28A
:1043D0000FF010FC07230398ADF82C300AA93926FA
:1043E0000A970FF027FC039958460CF06FF92A46FC
:1043F000294604F51B7000966E23FEF783F94FF0F3
:104400000503A4F89C32284BC4F8A03203F54C53A2
:104410003333C4F8A432A3F5CC43663BC4F8A832C6
:1044200003F1331303F54C530598C4F8AC32FEF78F
:10443000CEF804F54873C4F86832059800966E23E8
:10444000B2224121FEF75EF9059958460CF03EF97B
:104450000498C2225221FDF78BFF4FF07F4304994D
:10446000C4F8E0324046A4F8E4520FF049F998E865
:10447000070004F53B7383E8070006230498ADF8B2
:104480002C300AA90A970FF0D5FB584604990CF076
:104490001DF920460DB0BDE8F08F00BF9C3F012004
:1044A000CABC0208C8CF0208996600FF406A70477C
:1044B000806A704770478A880B8810B5D20A4C888A
:1044C000C1699BB251F8220043EA0443184410BD6D
:1044D00010B50446BAB1107B68B1537BD27A1B0287
:1044E00003F4E0631A43236A03EB82031A888A42C7
:1044F00002D193F9020010BD05D8013880B204330F
:104500000028F3D1F7E70020F5E710B52C21044689
:1045100025F0E0F8204610BD30B58BB00446BDF85C
:1045200060500895BDF85C5007959DF85050069571
:104530009DF84C5005959DF8485004959DF84450C1
:1045400003959DF8405002959DF83C500195BDF8AB
:104550003850009514F07EF8064B2360159BE361FC
:10456000169B2362199B63621A9BA36220460BB0C1
:1045700030BD00BF78D3020870477047704730B431
:10458000C26844685510034604EB6200D20748BF76
:1045900062599B6830BC48BFD358184703464068EF
:1045A00030B19A681AB9D86800F00100704701204C
:1045B000704730B4C26844685510034604EB62008B
:1045C000D20748BF62599B6830BC48BFD3581847D0
:1045D0000346406830B19A681AB9D86800F0010003
:1045E00070470120704710B51021044625F072F87D
:1045F000204610BD10B51021044625F06BF820466A
:1046000010BD10B5044600F5FE7003F017FA04F56E
:10461000447004F0BFF904F2FC4006F098FE04F583
:10462000B96006F094FE04F2946006F090FE04F582
:10463000EC6006F08CFE04F62C0006F088FE04F612
:10464000F80006F084FE04F6C41006F080FE04F5BF
:10465000296006F07CFE04F65C3006F078FE04F675
:10466000284006F074FE04F6F44006F070FE04F5EF
:104670005C6006F06CFE04F68C6006F068FE04F6E2
:10468000587006F064FE04F58150043006F05FFEB9
:1046900004F587501030BDE8104006F058BE00F118
:1046A0006C028A4208B508D10368DB6A984712F0A9
:1046B00055F9BDE80840FEF7C3BC08BD38B500F5A4
:1046C000AC73994204460D4603D112F047F9FEF748
:1046D000D7FCE034A54205D112F040F9BDE83840DE
:1046E000FEF73EBC38BD0000F8B5194B018F1B88A2
:1046F0008B4206462AD9174B1B682BB9164B174A13
:1047000017486C2125F022FF13F81120154B1B6868
:1047100053F82250144B186802F020FD2B6807460E
:104720009B6B284698472B6804469B6C3946284665
:1047300098472B6814FB00F45B6A39462846984773
:10474000A4B223181BB2A6F84630F8BD0023FAE73E
:10475000943F0120903F01207DBB0208BFBB0208AF
:10476000FABB0208983F01209C3F012010B5034B83
:104770000360044602F06EFF204610BDBCDE020856
:104780002A4B10B50446036000F587501030FFF740
:10479000EDFF04F581500430FFF7E8FF04F6587090
:1047A000FFF7E4FF04F68C60FFF7E0FF04F55C60C0
:1047B000FFF7DCFF04F6F440FFF7D8FF04F62840CB
:1047C000FFF7D4FF04F65C30FFF7D0FF04F5296053
:1047D000FFF7CCFF04F6C410FFF7C8FF04F6F8009B
:1047E000FFF7C4FF04F62C00FFF7C0FF04F5EC60F0
:1047F000FFF7BCFF04F29460FFF7B8FF04F5B9605F
:10480000FFF7B4FF04F2FC40FFF7B0FF084BC4F819
:10481000103304F5447000F067FA064BC4F8FC311D
:1048200004F5FE70FDF738FD204610BD10D40208D7
:104830009CDB02083CD9020810B50446FFF7A0FF34
:10484000204641F2DC1124F045FF204610BD10B592
:104850000446FFF78BFF2046CC2124F03BFF204687
:1048600010BD00002DE9F04F04469FB0A046002681
:1048700014F0EAF8DD4BE66348F8403B04F16C07BE
:104880004046FDF753FF38460FF0BCFC04F1B4037B
:10489000184604F5AC790493FDF748FF04F1E000F5
:1048A000FDF758FF4846FDF755FF04F5E873184635
:1048B0000593FDF73BFF04F5FE731846069303F0DE
:1048C000A1F804F544731846079304F047F804F27E
:1048D000244318460293FDF759FD04F26C40FDF79E
:1048E00055FD04F2B44318460393FDF74FFD04F25F
:1048F000FC431846089306F081FC04F5B96318469A
:10490000099306F07BFC04F2946318460A9306F0C0
:1049100075FC04F5EC6318460B9306F06FFC04F687
:104920002C0318460C9306F069FC04F6F8031846AD
:104930000D9306F063FC04F6C41318460E9306F0BC
:104940005DFC04F5296318460F9306F057FC04F646
:104950005C331846109306F051FC04F628431846C1
:10496000119306F04BFC04F6F4431846129306F03C
:1049700045FC04F55C631846139306F03FFC04F60F
:104980008C631846149304F5815B06F037FC04F63B
:10499000587318460BF1040B04F5875A15930AF166
:1049A000100A06F02BFC584606F028FC504606F08C
:1049B00025FC8F4A04F58053C3E96F248D4AC3E96F
:1049C00071268D4AC3E973248C4AC3E975264FF4D6
:1049D000A0733246009331464046F023251DFDF773
:1049E00091FE4FF07F43A366414628460BF06EFED2
:1049F000314638461E22FDF7BBFC1CAA1BA9012329
:104A00003846ADF87030ADF86C600FF070F90E23D9
:104A1000A4F8A4303846FFF767FE794A4FF0FF3319
:104A2000C4E92A2304F58D531C33C4F89430394665
:104A3000284650270BF04AFE32460498009731462C
:104A4000F023FDF75FFE4FF07F430499C4F8DC309C
:104A500028464FF022080BF039FE32463146CDF899
:104A6000008004F5C6706423FDF74CFE0523A4F80E
:104A7000BC31644BC4F8C03103F54C533333C4F834
:104A8000C431A3F5CC43663BC4F8C83103F13313FA
:104A900003F54C53C4F8CC314846FDF798FD04F5B6
:104AA0008E530C33C4F888312422CDF8008064235F
:104AB00048464621FDF726FE494628460BF006FEED
:104AC000F0233A46059800933146FDF71BFE4E4B06
:104AD000C4F8F8310599DFF8389128460BF0F6FD57
:104AE00006980622AD21FDF743FC069928460BF0F7
:104AF000EDFD079806228021FDF73AFC079928462C
:104B00000BF0E4FD029809221021FDF731FC0DF1B4
:104B100058083E4B0299C4F854344046A4F85864EF
:104B20000EF0EEFD98E8070004F58C6383E80700BB
:104B300011230298ADF874301CA9CDF870900FF0D5
:104B400079F8029928460BF0C1FD03982C226421C4
:104B5000FDF70EFC4FF07F430399C4F8E434404660
:104B6000A4F8E8640EF0CCFD98E8070004F59E6315
:104B700083E807000F230398ADF874301CA9CDF823
:104B800070900FF057F8039928460BF09FFD3A46B6
:104B900008983146FDF7ECFB089928460BF096FD86
:104BA0003A4609983C21FDF7E3FB099928460BF0AA
:104BB0008DFD3A460A987821FDF7DAFB0A992846D6
:104BC0000BF084FD3A460B98B421FDF7D1FB0B990D
:104BD00028460BF07BFD0C988C223146FDF7C8FB74
:104BE0000C9928460BF072FD0D9813E010D40208C2
:104BF000E0D302089F460008F8D30208BD4600082B
:104C00006767B5FF996600FF656E77FF1B6EE3FF70
:104C1000C8CF02088C223C21FDF7AAFB0D9928463B
:104C20000BF054FD0E988C227821FDF7A1FB0E9914
:104C300028460BF04BFD0F988C22B421FDF798FB12
:104C40000F9928460BF042FD1098C8223146FDF717
:104C50008FFB109928460BF039FD1198C8223C2192
:104C6000FDF786FB119928460BF030FD1298C822FB
:104C70007821FDF77DFB129928460BF027FD13984C
:104C8000C822B421FDF774FB139928460BF01EFDD2
:104C900014984FF482723146FDF76AFB1499284646
:104CA0000BF014FD15984FF482723C21FDF760FB68
:104CB000159928460BF00AFD4FF482725846782168
:104CC000FDF756FB594628460BF000FD4FF4827263
:104CD0005046B421FDF74CFB284651460BF0F6FC3C
:104CE00020461FB0BDE8F08F7047704710B54FF4F5
:104CF0008071044624F0EEFC204610BD2DE9F047FB
:104D0000044686B026460025FDF720FB524BA562DF
:104D100046F82C3B29462622304625F01EFE30461A
:104D2000FDF714FB4D4BE36204F15808FF2384F8B0
:104D3000523004F1A00765654046FDF727FB384671
:104D4000FDF724FB464BC4F8A030464BA3602A462F
:104D500029463046C4F8E850FDF70AFB30462D21BD
:104D6000FCF758FA30461E21FCF756FA4FF0FF3395
:104D70006365314620460BF0A9FC6E462A460621A3
:104D800040464FF07F4AFDF7F3FAA4F88C504146B5
:104D90003046C4F888A00EF0B3FC96E8070004F192
:104DA000940383E80700DFF8E090CDF8109021230A
:104DB00004A94046ADF814300EF03CFF41462046B1
:104DC0000BF084FC0F2209213846FDF7D1FAD4F804
:104DD000A030A4F8D450D3F88430C4F8D0A0394619
:104DE0003046984796E8070004F1DC0383E80700A3
:104DF0001D4B1B6804F1EC052BB91C4B1C4A6021B0
:104E00001C4825F0A3FB1C4B1B881F2B03D81B4BF6
:104E1000174A6121F4E71A4B1F21186802F09EF926
:104E2000184A03460A21284615F0FDFA3846C4F808
:104E3000E8500EF0DFFE202304A93846ADF8143008
:104E4000CDF810900EF0F6FE204639460BF03EFCF1
:104E5000204606B0BDE8F08748D402080CE50208F9
:104E6000D8CF02082D001E00903F01207DBB020814
:104E70007FBC0208FABB0208943F012041BC020833
:104E80009C3F0120CABC0208C8CF0208704730B45A
:104E9000C26844685510034604EB6200D20748BF5D
:104EA00062599B6830BC48BFD358184703464068D6
:104EB00030B19A681AB9D86800F001007047012033
:104EC000704710B51021044624F004FC204610BDA4
:104ED00010B5044600F5E87003F05CFD04F5397088
:104EE00002F0ACFD04F5916006F029FB04F2545089
:104EF00006F025FB04F5C46006F021FB04F2EC602B
:104F000006F01DFB04F5F76006F019FB04F68400BB
:104F100006F015FB04F5156006F011FB04F61C20E5
:104F200006F00DFB04F6E820BDE8104006F007BBD4
:104F3000E430884208B505D111F010FDBDE8084005
:104F4000FEF79EB808BD000010B5034B0360044691
:104F500002F012F9204610BD50DF02081B4B10B5BD
:104F60000446036000F6E820FFF7EEFF04F61C207D
:104F7000FFF7EAFF04F51560FFF7E6FF04F684008B
:104F8000FFF7E2FF04F5F760FFF7DEFF04F2EC60E5
:104F9000FFF7DAFF04F5C460FFF7D6FF04F25450C0
:104FA000FFF7D2FF04F59160FFF7CEFF084BC4F87E
:104FB000E43204F53970FDF76FF9064BC4F8D031CF
:104FC00004F5E870FFF790FE204610BDF4D4020807
:104FD0003CD902089CDB020810B50446FFF7BEFF6F
:104FE000204640F6C43124F075FB204610BD10B5B4
:104FF0000446FFF7A9FF2046CC2124F06BFB204696
:1050000010BD00002DE9F04F044695B0A1460026E2
:1050100013F01AFDB94BE66349F8403B4846FDF7EB
:1050200085FB04F1E40A04F16C00FDF793FB04F541
:10503000AE7B5046FDF78EFB04F5C4785846FDF76D
:1050400075FB4046FDF7A2F904F5E8731846039393
:1050500003F084FC04F53973184604F5886704935B
:1050600002F0D0FC04F57E70FDF790F93846FDF7AC
:105070008DF904F591631846059306F0B7F904F22B
:1050800054531846069306F0B1F904F5C463184664
:10509000079306F0ABF904F2EC631846089306F0A8
:1050A000A5F904F5F7631846099306F09FF904F68D
:1050B000840318460A9306F099F904F51563184617
:1050C0000B9306F093F904F61C2318460C9306F094
:1050D0008DF904F6E82318460D9306F087F9884BFE
:1050E000C4F8B43B874BC4F8BC3B4FF4A0733246C2
:1050F000C4F8B84BC4F8C06B314600934846F0235F
:10510000251DFDF7FFFA4FF07F43A3664946284669
:105110004FF022090BF0DAFA32463146CDF8009012
:1051200004F58C706423FDF7EDFA0523A4F84831EB
:10513000754BC4F84C3103F54C533333C4F850313C
:10514000A3F5CC43663BC4F8543103F1331303F5A4
:105150004C53C4F858315046FDF739FA04F6B433CD
:10516000C4F814312422CDF800906423504646211F
:10517000FDF7C8FA4FF0F009514628460BF0A6FAA1
:105180004B46502231465846CDF80090FDF7BAFA0A
:105190005E4BC4F88431594628460BF097FA062234
:1051A00040460B21FDF7E4F80DF1380A584BC4F8DE
:1051B000B83141465046A4F8BC610EF0A1FA9AE815
:1051C000070004F5E27383E80700DFF848B1CDF883
:1051D00048B0142312A94046ADF84C300EF02AFD19
:1051E000414628460BF072FA039803227521FDF719
:1051F000BFF8039928460BF069FA04980322A2210C
:10520000FDF7B6F8049928460BF060FA2C223846D0
:105210006421FDF7ADF84FF07F43C4F87034394690
:105220005046A4F874640EF06BFA9AE8070004F292
:105230007C4383E80700122312A93846ADF84C30AE
:10524000CDF848B00EF0F6FC394628460BF03EFA91
:10525000059850223146FDF78BF8059928460BF04A
:1052600035FA502211460698FDF782F8069928462D
:105270000BF02CFA07985022A021FDF779F8079936
:1052800028460BF023FA0898A0223146FDF770F863
:10529000089928460BF01AFA4A4609983146FDF754
:1052A00067F8099928460BF011FAA02211460A98CE
:1052B000FDF75EF80A9928460BF008FA4A460B9863
:1052C0005021FDF755F80B9928460BF0FFF90C9883
:1052D000A0225021FDF74CF80C9928460BF0F6F966
:1052E0000D984A46A021FDF743F828460D990BF08A
:1052F000EDF9204615B0BDE8F08F00BFF4D40208E8
:10530000DCD40208314F0008996600FF656E77FF14
:105310001B6EE3FFC8CF0208704730B4C268446810
:105320005510034604EB6200D20748BF62599B68E0
:1053300030BC48BFD35818470346406830B19A681C
:105340001AB9D86800F0010070470120704710B505
:105350001021044624F0BEF9204610BD10B50446C5
:10536000983006F0E4F904F5B27006F0E0F904F5BF
:105370000C7006F0DCF904F53F7006F0D8F904F57E
:10538000727006F0D4F904F2944006F0D0F904F5F6
:10539000AC6006F0CCF904F22C6006F0C8F904F514
:1053A000DF6006F0C4F904F2C47006F0C0F904F539
:1053B000096006F0BCF904F65C1006F0B8F904F6D2
:1053C000282006F0B4F904F6F42006F0B0F904F54C
:1053D0003C6006F0ACF904F68C4006F0A8F904F63F
:1053E000585006F0A4F904F6246006F0A0F904F57C
:1053F0006F6006F09CF904F6BC7006F098F904F5AD
:105400008450083006F093F904F58A50143006F001
:105410008EF904F5915006F08AF904F597500C3096
:1054200006F085F904F59D50183006F080F904F572
:10543000B2500C3003F0AEFA04F5BB50BDE810409A
:1054400002F0FCBA38B500F5A4530433994204467F
:105450000D4603D111F082FAFDF772FD04F5A75055
:105460001C30854205D111F079FABDE83840FDF7CE
:1054700007BE38BD10B5034B0360044601F04CFF76
:10548000204610BDE4DF020838B500F580553E4BDC
:1054900003603E4BC5F86037044600F5BB50FCF78F
:1054A000FBFE3B4BC5F84C3604F5B2500C30FFF711
:1054B0001BFC04F59D501830FFF7DCFF04F59750F6
:1054C0000C30FFF7D7FF04F59150FFF7D3FF04F539
:1054D0008A501430FFF7CEFF04F584500830FFF7F0
:1054E000C9FF04F6BC70FFF7C5FF04F56F60FFF756
:1054F000C1FF04F62460FFF7BDFF04F65850FFF724
:10550000B9FF04F68C40FFF7B5FF04F53C60FFF7E8
:10551000B1FF04F6F420FFF7ADFF04F62820FFF7F3
:10552000A9FF04F65C10FFF7A5FF04F50960FFF77B
:10553000A1FF04F2C470FFF79DFF04F5DF60FFF7E1
:1055400099FF04F22C60FFF795FF04F5AC60FFF7BC
:1055500091FF04F29440FFF78DFF04F57270FFF79E
:1055600089FF04F53F70FFF785FF04F50C70FFF726
:1055700081FF04F5B270FFF77DFF04F19800FFF79B
:1055800079FF204638BD00BF40D502083CD902084B
:105590009CDB020810B50446FFF776FF204641F673
:1055A000840124F097F8204610BD10B50446FFF79B
:1055B00061FF2046CC2124F08DF8204610BD00006C
:1055C0002DE9F04F0446A5B0A046002713F03CFAA1
:1055D000D74BE76348F8403B4046FDF7A7F804F196
:1055E0006C0318460793FDF7A1F804F198031846D9
:1055F000089305F0F3FF04F5B2731846099305F01C
:10560000EDFF04F50C7318460A9305F0E7FF04F567
:105610003F7318460B9305F0E1FF04F572731846CB
:105620000C9305F0DBFF04F2944318460D9305F04C
:10563000D5FF04F5AC6318460E9305F0CFFF04F2D6
:105640002C6318460F9305F0C9FF04F5DF63184675
:10565000109305F0C3FF04F2C4731846119305F0CC
:10566000BDFF04F509631846129305F0B7FF04F671
:105670005C131846139305F0B1FF04F6282318466F
:10568000149305F0ABFF04F6F4231846159305F0C8
:10569000A5FF04F53C631846169305F09FFF04F63A
:1056A0008C431846179305F099FF04F65853184693
:1056B000189305F093FF04F624631846199305F038
:1056C0008DFF04F56F6318461A9305F087FF04F603
:1056D000BC7318461B9305F081FF04F5845308330F
:1056E0001846029305F07AFF04F58A5314331846DE
:1056F000039305F073FF04F5915318461C9305F0CE
:105700006DFF04F597530C331846049305F066FFBC
:1057100004F59D5318331846059304F5A75905F071
:105720005DFF04F5A45009F11C090430FDF712F8DF
:105730004846FDF70FF804F5AD5A04F5AB500AF1F1
:105740001C0A04F5B05B14300BF1040BFCF71EFED1
:105750005046FCF71BFE5846FCF718FE04F5B25302
:105760000C331846069303F0F9F804F5BB5304F51F
:10577000805618461D9302F045F96E4BC6F87438F2
:105780006D4BC6F87C384FF4A0733A46C6F878489B
:10579000C6F88078394600934046F023251DFCF773
:1057A000B1FF4FF07F43A366414628460AF08EFFC3
:1057B000F0230798009350223946FCF7A3FF5F4B74
:1057C000C4F89430079928460AF080FF08985022C0
:1057D0003946FCF7CDFD089928460AF077FF09986D
:1057E00050223021FCF7C4FD099928460AF06EFFCB
:1057F0000A9850226021FCF7BBFD0A9928460AF05E
:1058000065FF0B9850229021FCF7B2FD0B992846BA
:105810000AF05CFF0C985022C021FCF7A9FD0C99FE
:1058200028460AF053FF0D9880223946FCF7A0FD68
:105830000D9928460AF04AFF0E9880223021FCF785
:1058400097FD0E9928460AF041FF0F9880226021AB
:10585000FCF78EFD0F9928460AF038FF1098802239
:105860009021FCF785FD109928460AF02FFF11982A
:105870008022C021FCF77CFD119928460AF026FF02
:105880001298B0223946FCF773FD129928460AF0A7
:105890001DFF1398B0223021FCF76AFD13992846AA
:1058A0000AF014FF1498B0226021FCF761FD1499EE
:1058B00028460AF00BFF1598B0229021FCF758FDFE
:1058C000159928460AF002FF1698B022C021FCF76D
:1058D0004FFD169928460AF0F9FE1798E02239463E
:1058E000FCF746FD179928460AF0F0FE1898E022CA
:1058F0003021FCF73DFD189928460AF0E7FE19987B
:10590000E0226021FCF734FD199928460AF0DEFEFA
:105910001A98E0229021FCF72BFD1A9928460AF0EC
:10592000D5FE1B98E022C021FCF722FD08E000BF55
:1059300040D5020828D5020845540008656E77FF57
:105940001B9928460AF0C2FE02984FF48872394625
:10595000FCF70EFD029928460AF0B8FE03984FF4B2
:1059600088723021FCF704FD039928460AF0AEFE48
:105970001C984FF488726021FCF7FAFC1C992846A9
:105980000AF0A4FE04984FF488729021FCF7F0FC12
:10599000049928460AF09AFE05984FF48872C021AF
:1059A000FCF7E6FC4FF02208059928460AF08EFE27
:1059B0003A463946CDF8008009F134006423FCF7FB
:1059C000A1FE0523A6F86035414BC6F8643503F502
:1059D0004C533333C6F86835A3F5CC43663BC6F861
:1059E0006C3503F1331303F54C53C6F87035484654
:1059F000FCF7EDFD04F5C3531433C6F82C3524220F
:105A00006423CDF8008048464621FCF77BFE4946DA
:105A100028460AF05BFE2C2250466421FCF7A8FCC5
:105A20000DF178084FF07F43C6F8EC3551464046FB
:105A3000A6F8F0750DF064FE98E807000AF13C0343
:105A400083E80700DFF89090CDF88890162322A90C
:105A50005046ADF88C300EF0EDF8514628460AF06D
:105A600035FE062258460C21FCF782FC194BC6F87D
:105A7000343659464046A6F838760DF041FE98E88F
:105A8000070004F5B25383E80700152322A95846FE
:105A9000ADF88C30CDF888900EF0CCF859462846F9
:105AA0000AF014FE069806227B21FCF761FC069999
:105AB00028460AF00BFE1D980622A821FCF758FC88
:105AC00028461D990AF002FE204625B0BDE8F08F59
:105AD000996600FF1B6EE3FFC8CF0208704730B421
